{
  "_format": "hh-sol-artifact-1",
  "contractName": "NFTCollateral",
  "sourceName": "contracts/NFTCollateral.sol",
  "abi": [
    {
      "inputs": [],
      "name": "ReentrancyGuardReentrantCall",
      "type": "error"
    },
    {
      "inputs": [
        {
          "internalType": "uint256",
          "name": "",
          "type": "uint256"
        }
      ],
      "name": "collateralOwner",
      "outputs": [
        {
          "internalType": "address",
          "name": "",
          "type": "address"
        }
      ],
      "stateMutability": "view",
      "type": "function"
    },
    {
      "inputs": [
        {
          "internalType": "address",
          "name": "nftAddress",
          "type": "address"
        },
        {
          "internalType": "uint256",
          "name": "tokenId",
          "type": "uint256"
        }
      ],
      "name": "depositCollateral",
      "outputs": [],
      "stateMutability": "nonpayable",
      "type": "function"
    },
    {
      "inputs": [
        {
          "internalType": "address",
          "name": "",
          "type": "address"
        },
        {
          "internalType": "uint256",
          "name": "",
          "type": "uint256"
        }
      ],
      "name": "isDeposited",
      "outputs": [
        {
          "internalType": "bool",
          "name": "",
          "type": "bool"
        }
      ],
      "stateMutability": "view",
      "type": "function"
    },
    {
      "inputs": [
        {
          "internalType": "address",
          "name": "",
          "type": "address"
        },
        {
          "internalType": "address",
          "name": "",
          "type": "address"
        },
        {
          "internalType": "uint256",
          "name": "",
          "type": "uint256"
        },
        {
          "internalType": "bytes",
          "name": "",
          "type": "bytes"
        }
      ],
      "name": "onERC721Received",
      "outputs": [
        {
          "internalType": "bytes4",
          "name": "",
          "type": "bytes4"
        }
      ],
      "stateMutability": "nonpayable",
      "type": "function"
    },
    {
      "inputs": [
        {
          "internalType": "address",
          "name": "nftAddress",
          "type": "address"
        },
        {
          "internalType": "uint256",
          "name": "tokenId",
          "type": "uint256"
        }
      ],
      "name": "withdrawCollateral",
      "outputs": [],
      "stateMutability": "nonpayable",
      "type": "function"
    }
  ],
  "bytecode": "0x608060405234801561001057600080fd5b506001600081905550610b8b806100286000396000f3fe608060405234801561001057600080fd5b50600436106100575760003560e01c8063150b7a021461005c578063200549ca1461008c57806321673274146100bc578063350c35e9146100ec578063a5d5db0c14610108575b600080fd5b61007660048036038101906100719190610814565b610124565b60405161008391906108d2565b60405180910390f35b6100a660048036038101906100a191906108ed565b610138565b6040516100b39190610929565b60405180910390f35b6100d660048036038101906100d19190610944565b61016b565b6040516100e3919061099f565b60405180910390f35b61010660048036038101906101019190610944565b61019a565b005b610122600480360381019061011d9190610944565b6103fa565b005b600063150b7a0260e01b9050949350505050565b60016020528060005260406000206000915054906101000a900473ffffffffffffffffffffffffffffffffffffffff1681565b60026020528160005260406000206020528060005260406000206000915091509054906101000a900460ff1681565b6101a26105d6565b600260008373ffffffffffffffffffffffffffffffffffffffff1673ffffffffffffffffffffffffffffffffffffffff168152602001908152602001600020600082815260200190815260200160002060009054906101000a900460ff1661023f576040517f08c379a000000000000000000000000000000000000000000000000000000000815260040161023690610a17565b60405180910390fd5b6001600082815260200190815260200160002060009054906101000a900473ffffffffffffffffffffffffffffffffffffffff1673ffffffffffffffffffffffffffffffffffffffff163373ffffffffffffffffffffffffffffffffffffffff16146102e0576040517f08c379a00000000000000000000000000000000000000000000000000000000081526004016102d790610a83565b60405180910390fd5b8173ffffffffffffffffffffffffffffffffffffffff166342842e0e3033846040518463ffffffff1660e01b815260040161031d93929190610ab2565b600060405180830381600087803b15801561033757600080fd5b505af115801561034b573d6000803e3d6000fd5b505050506001600082815260200190815260200160002060006101000a81549073ffffffffffffffffffffffffffffffffffffffff02191690556000600260008473ffffffffffffffffffffffffffffffffffffffff1673ffffffffffffffffffffffffffffffffffffffff168152602001908152602001600020600083815260200190815260200160002060006101000a81548160ff0219169083151502179055506103f661061c565b5050565b6104026105d6565b600260008373ffffffffffffffffffffffffffffffffffffffff1673ffffffffffffffffffffffffffffffffffffffff168152602001908152602001600020600082815260200190815260200160002060009054906101000a900460ff16156104a0576040517f08c379a000000000000000000000000000000000000000000000000000000000815260040161049790610b35565b60405180910390fd5b8173ffffffffffffffffffffffffffffffffffffffff166342842e0e3330846040518463ffffffff1660e01b81526004016104dd93929190610ab2565b600060405180830381600087803b1580156104f757600080fd5b505af115801561050b573d6000803e3d6000fd5b50505050336001600083815260200190815260200160002060006101000a81548173ffffffffffffffffffffffffffffffffffffffff021916908373ffffffffffffffffffffffffffffffffffffffff1602179055506001600260008473ffffffffffffffffffffffffffffffffffffffff1673ffffffffffffffffffffffffffffffffffffffff168152602001908152602001600020600083815260200190815260200160002060006101000a81548160ff0219169083151502179055506105d261061c565b5050565b600260005403610612576040517f3ee5aeb500000000000000000000000000000000000000000000000000000000815260040160405180910390fd5b6002600081905550565b6001600081905550565b6000604051905090565b600080fd5b600080fd5b600073ffffffffffffffffffffffffffffffffffffffff82169050919050565b60006106658261063a565b9050919050565b6106758161065a565b811461068057600080fd5b50565b6000813590506106928161066c565b92915050565b6000819050919050565b6106ab81610698565b81146106b657600080fd5b50565b6000813590506106c8816106a2565b92915050565b600080fd5b600080fd5b6000601f19601f8301169050919050565b7f4e487b7100000000000000000000000000000000000000000000000000000000600052604160045260246000fd5b610721826106d8565b810181811067ffffffffffffffff821117156107405761073f6106e9565b5b80604052505050565b6000610753610626565b905061075f8282610718565b919050565b600067ffffffffffffffff82111561077f5761077e6106e9565b5b610788826106d8565b9050602081019050919050565b82818337600083830152505050565b60006107b76107b284610764565b610749565b9050828152602081018484840111156107d3576107d26106d3565b5b6107de848285610795565b509392505050565b600082601f8301126107fb576107fa6106ce565b5b813561080b8482602086016107a4565b91505092915050565b6000806000806080858703121561082e5761082d610630565b5b600061083c87828801610683565b945050602061084d87828801610683565b935050604061085e878288016106b9565b925050606085013567ffffffffffffffff81111561087f5761087e610635565b5b61088b878288016107e6565b91505092959194509250565b60007fffffffff0000000000000000000000000000000000000000000000000000000082169050919050565b6108cc81610897565b82525050565b60006020820190506108e760008301846108c3565b92915050565b60006020828403121561090357610902610630565b5b6000610911848285016106b9565b91505092915050565b6109238161065a565b82525050565b600060208201905061093e600083018461091a565b92915050565b6000806040838503121561095b5761095a610630565b5b600061096985828601610683565b925050602061097a858286016106b9565b9150509250929050565b60008115159050919050565b61099981610984565b82525050565b60006020820190506109b46000830184610990565b92915050565b600082825260208201905092915050565b7f4e4654206e6f74206465706f7369746564000000000000000000000000000000600082015250565b6000610a016011836109ba565b9150610a0c826109cb565b602082019050919050565b60006020820190508181036000830152610a30816109f4565b9050919050565b7f4e6f7420746865206f776e6572206f662074686520746f6b656e000000000000600082015250565b6000610a6d601a836109ba565b9150610a7882610a37565b602082019050919050565b60006020820190508181036000830152610a9c81610a60565b9050919050565b610aac81610698565b82525050565b6000606082019050610ac7600083018661091a565b610ad4602083018561091a565b610ae16040830184610aa3565b949350505050565b7f4e465420616c7265616479206465706f73697465640000000000000000000000600082015250565b6000610b1f6015836109ba565b9150610b2a82610ae9565b602082019050919050565b60006020820190508181036000830152610b4e81610b12565b905091905056fea2646970667358221220b897ea781e101fde204c1eed5f01bbe76862f2d704d514c0e4ff30a60848bedf64736f6c63430008140033",
  "linkReferences": {},
  "deployedLinkReferences": {}
}